:100000000C9434000C9451000C9451000C94510049
:100010000C9451000C9451000C9451000C9451001C
:100020000C9451000C9451000C9451000C9451000C
:100030000C9451000C9451000C9451000C945100FC
:100040000C9451000C9451000C9451000C945100EC
:100050000C9451000C94E2000C9451000C9451004B
:100060000C9451000C94510011241FBECFEFD8E026
:10007000DEBFCDBF11E0A0E0B1E0E4E5F8E002C0F2
:1000800005900D92AE32B107D9F721E0AEE2B1E0B2
:1000900001C01D92A833B207E1F70E94B3000C948F
:1000A00028040C94000080E480937C008FE8809307
:1000B0007A00089590917C008770987F892B8093B7
:1000C0007C0080917A00806480937A0080917A002D
:1000D00086FDFCCF80917800909179000895ECE73F
:1000E000F0E090818770987F892B8083EAE7F0E0C9
:1000F00080818864808308954AE06EE271E00E9406
:10010000F30366E070E083E091E00E94830165E024
:1001100070E08EE291E00E94830163E070E080E095
:1001200091E00C948301623021F4813011F4289A1B
:1001300008959BB1892B8BB90895623021F48130E9
:1001400011F4289808959BB1809589238BB908955F
:100150009BB1623029F4813019F4892785B908955B
:1001600089278BB908950E9408010E945300789452
:100170001092330180910901882351F010920901F6
:100180006091340170913501809136010E94130114
:1001900080917A00809133010E946F008091330139
:1001A000823019F41092330103C08F5F80933301C2
:1001B0002FEF83ED90E3215080409040E1F700C0A5
:1001C0000000D8CF1F920F920FB60F9211248F9379
:1001D0009F93EF93FF938091780090917900E4E3EF
:1001E000F1E09183808380917C0083708283EAE7D1
:1001F000F0E080818F7E808381E080930901FF9110
:10020000EF919F918F910F900FBE0F901F901895B7
:100210008AB18FEF8AB9209A60E00E949D0062E067
:1002200081E00C949D009B01813001F118F0823037
:10023000C9F108956535714038F460E082E00E94AC
:10024000930060E085E04DC02555314060E02335E6
:10025000314030F481E00E94930060E086E041C0CC
:1002600084E00E94930060E083E03BC0653571400C
:1002700038F461E080E10E94930061E088E231C0DF
:100280002555314061E02335314030F488E00E944B
:10029000930061E080E325C080E20E94930061E06A
:1002A00088E11FC06535714038F462E080E80E9443
:1002B000930062E080E40BC02555314062E02335B5
:1002C000314050F480E40E94930062E080E80E9494
:1002D0009D0062E081E005C081E00E94930062E041
:1002E00080EC0C949D00FC01860F971FE817F9071E
:1002F00041F02091C00027FFFCCF2091C600219340
:10030000F5CF862F0895FC01860F971FE817F90790
:1003100041F02091C00025FFFCCF21912093C60021
:10032000F5CFCB010895E4E6F0E020812D7F208316
:100330009093C5008093C40088E18093C1008EE053
:100340008093C20008959091C00095FFFCCF8093E8
:10035000C6000895E4E6F0E080818D7F808382E02E
:100360008093C0001092C50082E28093C400E2EC4A
:10037000F0E0808186608083E1ECF0E08081806144
:10038000808380818860808308954F925F926F920E
:100390007F928F929F92AF92BF92CF92DF92EF9215
:1003A000FF920F931F93CF93DF93CDB7DEB7A49740
:1003B0000FB6F894DEBF0FBECDBF6C014A015B01E2
:1003C000790184E2EAE0F1E0DE01119601900D92FC
:1003D0008A95E1F7CB01BA010E94B7022B013C01DB
:1003E0002AE030E0A6010E94E803C601FC01019664
:1003F00020812111FBCF8EE281938F01C301B201D5
:100400000E94EF029B01AC01C501B4010E944A02A7
:100410004B015C01EE0CFF1CEE0CFF1CE1E0F0E078
:10042000EC0FFD1FEE0DFF1D6081718182819381B4
:100430000E94EF029B01AC01C501B4010E947B0345
:100440000E94B7029B0177FF04C022273327261B97
:10045000370BB901330F880B990B2AE030E0A80164
:100460000E94E803C601A4960FB6F894DEBF0FBE43
:10047000CDBFDF91CF911F910F91FF90EF90DF9053
:10048000CF90BF90AF909F908F907F906F905F9034
:100490004F9008955058BB27AA270E9462020C94DF
:1004A00041030E94330338F00E943A0320F039F4EC
:1004B0009F3F19F426F40C9430030EF4E095E7FB0B
:1004C0000C942A03E92F0E94520358F3BA176207CB
:1004D00073078407950720F079F4A6F50C9474034C
:1004E0000EF4E0950B2EBA2FA02D0B01B90190014F
:1004F0000C01CA01A0011124FF27591B99F0593F93
:1005000050F4503E68F11A16F040A22F232F342FDA
:100510004427585FF3CF469537952795A795F04028
:100520005395C9F77EF41F16BA0B620B730B840B3D
:10053000BAF09150A1F0FF0FBB1F661F771F881FF5
:10054000C2F70EC0BA0F621F731F841F48F487954D
:1005500077956795B795F7959E3F08F0B0CF93953F
:10056000880F08F09927EE0F9795879508950E94B8
:10057000BE026894B1110C94750308950E945A0349
:1005800088F09F5798F0B92F9927B751B0F0E1F054
:10059000660F771F881F991F1AF0BA95C9F714C004
:1005A000B13091F00E947403B1E008950C9474038B
:1005B000672F782F8827B85F39F0B93FCCF386953D
:1005C00077956795B395D9F73EF49095809570959A
:1005D00061957F4F8F4F9F4F0895E89409C097FB17
:1005E0003EF490958095709561957F4F8F4F9F4F0A
:1005F0009923A9F0F92F96E9BB279395F69587954E
:1006000077956795B795F111F8CFFAF4BB0F11F410
:1006100060FF1BC06F5F7F4F8F4F9F4F16C08823B7
:1006200011F096E911C0772321F09EE8872F762FED
:1006300005C0662371F096E8862F70E060E02AF02E
:100640009A95660F771F881FDAF7880F969587951A
:1006500097F9089597F99F6780E870E060E0089542
:100660009FEF80EC089500240A94161617061806CA
:100670000906089500240A941216130614060506A6
:100680000895092E0394000C11F4882352F0BB0F37
:1006900040F4BF2B11F460FF04C06F5F7F4F8F4F9A
:1006A0009F4F089557FD9058440F551F59F05F3FD5
:1006B00071F04795880F97FB991F61F09F3F79F084
:1006C00087950895121613061406551FF2CF469506
:1006D000F1DF08C0161617061806991FF1CF869588
:1006E0007105610508940895E894BB27662777276C
:1006F000CB0197F908950E948E030C9441030E9448
:10070000330338F00E943A0320F0952311F00C9443
:100710002A030C94300311240C9475030E94520395
:1007200070F3959FC1F3950F50E0551F629FF00144
:10073000729FBB27F00DB11D639FAA27F00DB11D5D
:10074000AA1F649F6627B00DA11D661F829F2227E6
:10075000B00DA11D621F739FB00DA11D621F839F6D
:10076000A00D611D221F749F3327A00D611D231F43
:10077000849F600D211D822F762F6A2F11249F5791
:1007800050409AF0F1F088234AF0EE0FFF1FBB1F94
:10079000661F771F881F91505040A9F79E3F510553
:1007A00080F00C942A030C9475035F3FE4F3983EA9
:1007B000D4F3869577956795B795F795E7959F5FFD
:1007C000C1F7FE2B880F911D9695879597F908958F
:1007D0004532510520F4423010F00C94F303FB0134
:1007E0001082CB010895BB274A3031F4992322F4BB
:1007F000BDE2909581959F4F0C94FF03BB27FB01B1
:100800005527AA27880F991FAA1FA41710F0A41B09
:1008100083955051B9F7A05DAA3308F0A95DA19363
:10082000009779F7B111B1931192CB010C94180490
:10083000DC01FC01672F71917723E1F7329704C047
:100840007C916D9370836291AE17BF07C8F30895D2
:04085000F894FFCF4A
:10085400560A000A4144433D0001000000000A001A
:10086400000064000000E803000010270000A086D8
:0E087400010040420F008096980000E1F5055B
:00000001FF
